:020000040000FA
:0600000048EF03F01200BE
:0A0006000100AE06000060000000DB
:0400100010000000DC
:0C001400D9CFE6FFE1CFD9FF040EE126B2
:10002000DE6ADD6ADECF14F0DDCF15F0FD0EDBCF2A
:1000300016F0FE0EDBCF17F01650145C1750155853
:100040001AE2020EDB6A030EDB6A020EDBCF14F04B
:10005000030EDBCF15F0320E145C000E155806E2CD
:10006000020EDB2A030E01E3DB2AEFD7DF2A010EA3
:1000700001E3DB2AD7D7040EE15C02E2E16AE55234
:10008000E16EE552E7CFD9FF1200D9CFE6FFE1CF0D
:10009000D9FF8990FE0EDB508A6E89820A0EE66EC9
:1000A000E66AB8DFE552E55289920A0EE66EE66A24
:1000B000B1DFE552E552E552E7CFD9FF1200D9CFC3
:1000C000E6FFE1CFD9FF8980FE0EDB508A6E898280
:1000D0000A0EE66EE66A9EDFE552E55289920A0E46
:1000E000E66EE66A97DFE552E552E552E7CFD9FFC3
:1000F00012000F0EC16E936A926A380EE66EC5DF6B
:10010000E552060EE66EC1DFE5520C0EE66EBDDF6F
:10011000E552010EE66EB9DFE552800EE66EB5DF00
:10012000E5521200D9CFE6FFE1CFD9FF020EE1265A
:10013000010EDB6A040EF36E010EDBCFF4FFF35009
:10014000F45C47E2010EF36EDB5004E0D890F33626
:10015000E806FCE1F350E81C8C6E050EE66EE66ADC
:1001600059DFE552E552DF6A040EDF5C2FE2040E30
:10017000DF24146E010E145204E0E846FE0B140650
:10018000FCE1831421E1040EDF24146E010E1452ED
:1001900004E0E846FE0B1406FCE1831401E1F3D70A
:1001A000DF50040DF3CF14F0F4CF15F0600E1426D9
:1001B000000E1522010EDB500F011424E96E000E13
:1001C0001520EA6EEF5007D0DF2ACED7010EDB2ACA
:1001D000B1D7FF0E00D0146E020EE15C02E2E16ABC
:1001E000E552E16E1450E552E7CFD9FF1200D9CFA6
:1001F000E6FFE1CFD9FF070EE126060EDB6AD950F4
:10020000FD0FE96EFF0EDA20EA6EEE50ED1005E10B
:10021000300EE66E54DFE5525ED0D950FD0FE96E28
:10022000FF0EDA20EA6E000ED880EE54000EED5478
:100230003CE2FD0EDBCF16F0FE0EDBCF17F00A0E10
:100240000D6E0E6A16C008F017C009F022EC03F01C
:1002500004C016F005C017F0300E1626000E172247
:10026000D9CF14F0DACF15F0060EDBCFF3FFDB2A7F
:10027000F3500F011424E96E000E1520EA6E16C02B
:10028000EFFFD950FD0FE96EFF0EDA20EA6E0A0E7D
:100290000D6E0E6AEECF08F0EDCF09F022EC03F000
:1002A00008C0EEFF09C0EDFFB8D7060EDB5000080E
:1002B00012E2D9CF14F0DACF15F0060EDB06DB50D0
:1002C0000F011424E96E000E1520EA6EEF50E66E61
:1002D000F6DEE552EAD7070EE15C02E2E16AE5529A
:1002E000E16EE552E7CFD9FF1200D9CFE6FFE1CFAB
:1002F000D9FF080EE126010EDB6A020EDB6A030E4F
:10030000DB6A040EDB6A050EDB6A060EDB6A070E8B
:10031000DB6AF00E956E0F0E8C6EEBDE03DFDF6E88
:10032000FF0EDF5C01E110D1300EDF5C42E3DF50F5
:1003300039083FE3070EDB501CE1300EDF5C166E20
:10034000176A0A0E086E096A010EDBCF0DF0020E65
:10035000DBCF0EF004EC03F006501624146E0750A9
:100360001720156E010E14C0DBFF020E15C0DBFF57
:100370001BD0300EDF5C166E176A0A0E086E096A13
:10038000030EDBCF0DF0040EDBCF0EF004EC03F018
:1003900006501624146E07501720156E030E14C055
:1003A000DBFF040E15C0DBFFDFCFE6FF88DEE55282
:1003B000CBD02B0EDF5C09E02D0EDF5C06E02A0EB1
:1003C000DF5C03E02F0EDF5C08E1070EDFCFDBFF11
:1003D000DFCFE6FF74DEE552B7D03D0EDF5C01E013
:1003E00096D0070EDB502F0A46E0050A2FE0070AD9
:1003F00018E0060A01E063D0030EDBCF16F0040E0E
:10040000DBCF17F0010EDB501624146E020EDB500A
:100410001720156E050E14C0DBFF060E15C0DBFF9E
:1004200052D0010EDBCF16F0020EDBCF17F0030E19
:10043000DB50165C146E040EDB501758156E050E5B
:1004400014C0DBFF060E15C0DBFF3DD0010EDBCF75
:1004500008F0020EDBCF09F0030EDBCF0DF0040E27
:10046000DBCF0EF004EC03F0050E06C0DBFF060E3A
:1004700007C0DBFF28D0D950030FE96EDACFEAFFBF
:10048000EE50ED1013E0010EDBCF08F0020EDBCFD3
:1004900009F0030EDBCF0DF0040EDBCF0EF022ECE3
:1004A00003F008C014F009C015F002D0146A156AF0
:1004B000050E14C0DBFF060E15C0DBFF04D0050ED1
:1004C000DB6A060EDB6AC00EE66EDFDDE552050E66
:1004D000DBCFE6FF060EDBCFE6FF89DEE552E55215
:1004E000086A096A050E08C0DBFF060E09C0DBFFBB
:1004F000030E08C0DBFF040E09C0DBFFDE5208C09C
:10050000DEFF09C0DDFFDD52070EDB6A1DD0430EA2
:10051000DF5C1AE1010EE66EB8DDE552086A096A91
:10052000050E08C0DBFF060E09C0DBFF030E08C086
:10053000DBFF040E09C0DBFFDE5208C0DEFF09C08E
:10054000DDFFDD52070EDB6A640EE66EE66A62DDF1
:10055000E552E552E3D6080EE15C02E2E16AE552BB
:0A056000E16EE552E7CFD9FF12006B
:06056A00060EF66E000E05
:10057000F76E000EF86E00010900F550756F090066
:10058000F550766F03E1756701D03DD00900F55055
:10059000706F0900F550716F0900F550726F090016
:1005A0000900F550E96E0900F550EA6E09000900EE
:1005B0000900F550736F0900F550746F09000900C8
:1005C000F6CF77F0F7CF78F0F8CF79F070C0F6FF7C
:1005D00071C0F7FF72C0F8FF0001735302E174535A
:1005E00007E00900F550EE6E7307F8E27407F9D7DB
:1005F00077C0F6FF78C0F7FF79C0F8FF00017507F4
:08060000000E765BBFD712006B
:0806080008C012F008500D02B9
:10061000F4CF07F0F3CF06F009500E02F4CF09F043
:10062000F3CF08F00D02F3500726F4500822E86AD1
:10063000092212500E02F3500726F4500822E86AED
:040640000922000C7F
:0C064400056A046A100EE76ED8900836B4
:100650000936043605360D50045C0E50055805E386
:100660000D50045E0E50055A082AE72EF0D71200EE
:10067000000EF36E00EE00F0080E01D81200EA60E2
:1006800002D0EE6AFCD7F350E9601200EE6AFCD7A4
:1006900013EE00F023EE00F0F86A019CB5EC02F0D6
:0C06A00056EC03F075EC01F0FBD71200E3
:0206AC0012003A
:0206AE003738DB
:0E06B000392F3435362A3132332D43303D2B6D
:020000040030CA
:0100000024DB
:010001000EF0
:010002001EDF
:010003001EDE
:010005008179
:010006008178
:00000001FF
